:100000000C9418000C9455100C9455100C94551029
:100010000C9455100C9455100C9455100C945510CC
:100020000C9455100C9455100C9455100C945610BB
:1000300011241FBE08E00EBF0FEF0DBFA0E0B1E01E
:10004000E0ECF5E286E292E0A817B90719F0059016
:100050000D92FACFA6E2B2E08DE292E0A817B907BE
:1000600011F01D92FBCF0E943700FFCFFFCF2F92E0
:100070003F924F925F926F927F928F929F92AF9238
:10008000BF92CF92DF92EF92FF920F931F93CF9385
:10009000DF93CDB7DEB72A970FB6F894DEBF0FBE59
:1000A000CDBF24982C9A83B18071F12C803061E00F
:1000B00009F06F2D8CE691E00E94C208259A2D98D8
:1000C000579A5F9A239A229A219A209A2B982A98D3
:1000D0002998289880E480937C0087E880937A00B0
:1000E000AAE2B2E00FB6F894FC920FBEACE2B2E026
:1000F0000FB6F894FC920FBEF0928000F09281004F
:1001000089E08093890083EC8093880082E0482E08
:1001100086BB80916F00826080936F008BE0582EC9
:100120008093810001E010E040E855E260E070E07B
:10013000C8016B010E9461066CE574E248E050E082
:10014000C8010E943C060E9416098F2D8B83FC82F9
:1001500086018091C0008823CAF4B090C60081E077
:1001600090E064E674E243E050E00E943C06809137
:10017000C00080728030D9F3B092C60081E090E078
:1001800061E371E242E050E00E943C060E947F1071
:10019000A0902802B0902902809026029090270219
:1001A0000E94821098868F829401201B310BBA86A0
:1001B000A986A5014C095D0981E02A30310520E0BE
:1001C00030E04207530708F4812D8170803009F434
:1001D0002AC080917C00807F80937C0080917A008F
:1001E000806480937A0049815A8180917A0080747A
:1001F0008030D9F780917800992720917900022FDB
:100200001127102F0027082B192B8B81817080302C
:10021000C1F04017510770F0CA01801B910B843068
:10022000910578F403C1FE82ED8218870F83DA8688
:10023000C98659C2C801841B950B8430910508F406
:10024000F5C00E947F1090910001903089F090914C
:100250000901913041E050E009F020C090910A017D
:100260009030912D41F460E070E0A0E0B1E0B2C0C8
:1002700091E041E050E020910B012030A1F020916D
:100280001401213009F026C020911501203060E0D2
:1002900070E071F4BA01ABE0B1E09CC0912D209107
:1002A0000B01203061F721E09227692F772791E039
:1002B000209116012030A1F020911F012130B1F4CE
:1002C00020912001203091F422E030E0B901A6E134
:1002D000B1E080C060E070E020911601203061F74D
:1002E000903019F422E030E0B90191E02091210131
:1002F000203071F020912A01213081F420912B01CE
:10030000203061F423E030E0B901A1E2B1E062C045
:10031000903019F423E030E0B90191E020912C01F4
:10032000203071F020913501213081F42091360187
:10033000203061F424E030E0B901ACE2B1E04AC021
:10034000903019F424E030E0B90191E020913701B8
:10035000203071F020914001213081F42091410141
:10036000203061F425E030E0B901A7E3B1E032C00C
:10037000903019F425E030E0B90191E0209142017C
:10038000203071F020914B01213081F420914C01FB
:10039000203061F426E030E0B901A2E4B1E01AC0F7
:1003A000903019F426E030E0B90191E020914D0140
:1003B000203009F4FFC220915601213009F007C313
:1003C00020915701203009F002C327E030E0B90145
:1003D000ADE4B1E0FD01258136814781508591E092
:1003E0002017310720E030E04207530709F0912D34
:1003F00091709030C1F4FD01308727831683058307
:100400002F8138853283218391E09C9329853A8519
:1004100034832383FD0121E030E032872187DB0133
:10042000A45ABE4F9C930E948210A80180917C0028
:10043000807F816080937C0080917A0080648093CB
:100440007A0080917A0080748030D9F780917800AA
:10045000992720917900022F1127102F0027082BB0
:10046000192B8C81817080305A834983A9F0E01662
:10047000F10660F0C701801B910B8830910560F494
:1004800081E08B838C83FE82ED822DC1C8018E19A1
:100490009F0988309105A0F30E947F109091000180
:1004A000903089F090910901923041E050E009F0DC
:1004B00020C090910A019030912D41F460E070E0ED
:1004C000A0E0B1E0B2C091E041E050E020910B012A
:1004D0002030A1F020911401223009F026C0209193
:1004E0001501203060E070E071F4BA01ABE0B1E0DA
:1004F0009CC0912D20910B01203061F721E09227C3
:10050000692F772791E0209116012030A1F02091EA
:100510001F012230B1F420912001203091F422E01B
:1005200030E0B901A6E1B1E080C060E070E0209168
:100530001601203061F7903019F422E030E0B90163
:1005400091E020912101203071F020912A01223088
:1005500081F420912B01203061F423E030E0B901D7
:10056000A1E2B1E062C0903019F423E030E0B901BB
:1005700091E020912C01203071F020913501223042
:1005800081F420913601203061F424E030E0B9019B
:10059000ACE2B1E04AC0903019F424E030E0B90197
:1005A00091E020913701203071F0209140012230FC
:1005B00081F420914101203061F425E030E0B9015F
:1005C000A7E3B1E032C0903019F425E030E0B90182
:1005D00091E020914201203071F020914B012230B6
:1005E00081F420914C01203061F426E030E0B90123
:1005F000A2E4B1E01AC0903019F426E030E0B9016D
:1006000091E020914D01203009F4DAC1209156018A
:10061000223009F013C220915701203009F00EC298
:1006200027E030E0B901ADE4B1E0FD01258136817C
:100630004781508591E02017310720E030E04207E4
:10064000530709F0912D91709030C1F4FD0130876E
:100650002783168305832F8138853283218391E098
:100660009C9329853A8534832383FD0122E030E081
:1006700032872187DB01A45ABE4F9C931E830D83D2
:100680000E94821081E08B838C832DC063E271E233
:100690004DE050E00E943C06402F5527C40100E089
:1006A00010E0B8010E94F606C40120E331E26901BE
:1006B000B601A4010E943C06432D5527C401B80190
:1006C0000E94F606C401B601A4010E943C06C401C2
:1006D000A301B7010E94C406C40161E371E242E0D4
:1006E00050E00E943C060E947F10482F8091240217
:1006F000909125028115910509F48BC0209120026B
:10070000309121022031310508F0CFC15BE0350284
:10071000302D1124552E259F212D1124230F3327F1
:10072000322F2227A02DBB27A22BB32BFD01E0598E
:10073000FE4F1081242D20839D0127583E4FF90143
:10074000C080D1809D0129583E4FF901A080B18021
:100750009D012D583E4FF901E080F1809D012F58F9
:100760003E4FF90160807180FD01EA58FE4F3080F4
:10077000AB58BE4F0C9101979093250280932402B1
:10078000809120029091210201968F709070909339
:10079000210280932002842F0E948210123009F4DB
:1007A0007BC081E090E04C01A501B6010E94F606F5
:1007B000C401113009F46ACF68E071E247E050E00B
:1007C0000E943C06A3015070C40100E010E0B80193
:1007D0000E94F606C3018070917081E011149105AA
:1007E0000007110709F0812D8170803049F081E008
:1007F00090E06FE071E24BE050E00E943C0673CF66
:1008000081E090E06AE171E249E050E00E943C063C
:100810006ACF842F0E9482103FC0FD01078110859E
:10082000E580F680D284C1846381748141815281E4
:1008300081E090E05C010E94F606C50163E271E28E
:100840004DE050E00E943C064C2D5527C50120E0AC
:1008500030E04901B4010E94F606C50120E331E20F
:100860001901B101A5010E943C064D2D5527C50176
:10087000B4010E94F606C501B101A5010E943C0623
:10088000C501A701B8010E94C406C50161E371E278
:1008900042E050E00E943C0680915C01803021F0F3
:1008A000ACE5B1E080E037C080915D01803021F09F
:1008B000ADE5B1E081E02FC080915E01803021F094
:1008C000AEE5B1E082E027C080915F01803021F089
:1008D000AFE5B1E083E01FC080916001803021F07E
:1008E000A0E6B1E084E017C080916101803021F082
:1008F000A1E6B1E085E00FC080916201803021F077
:10090000A2E6B1E086E007C0809163018130B9F4CE
:10091000A3E6B1E087E090E01C92952D899F812DA0
:100920001124202D3327A82FBB27BA2FAA27A22BAB
:10093000B32BA050BF4F8C91813009F46ECF0E9431
:100940007F102BE232E0D9010FB6F8941C910FBE54
:100950000FB6F8941C920FBE0E94821010302D80AA
:100960003E8071012F813885890189859A856C01C6
:1009700009F4EFCB5C0149010E947F10009128022D
:1009800010912902E0902602F09027020E94821026
:1009900081E090E06C01A701B8010E94F606C60153
:1009A00067E674E247E150E00E943C067101840171
:1009B0006501CFCB903071F427E030E0B9010AC077
:1009C000903009F03EC027E030E0B9013AC09030E5
:1009D00009F429CD2BE0AB015202902D1124522EA7
:1009E000429F212D1124290F3327322F2227A02D9A
:1009F000BB27A22BB32B9D01295F3E4FF90120E0BD
:100A000030E0318320839D012B5F3E4FF90111833C
:100A100000839D012D5F3E4FF90129853A85318381
:100A200020839D012F5F3E4FF9012F81388531834F
:100A30002083A050BF4F91E09C93ECCC903009F400
:100A40001DCE2BE0AB015202902D1124522E429F5D
:100A5000212D1124290F3327322F2227A02DBB2728
:100A6000A22BB32B9D01295F3E4FF90120E030E01E
:100A7000318320839D012B5F3E4FF9011183008359
:100A80009D012D5F3E4FF90129853A8531832083F1
:100A90009D012F5F3E4FF9012F81388531832083DF
:100AA000A050BF4F91E09C93E0CD60E170E044E442
:100AB00054E2C9010E94770DEF92FF920F931F93AA
:100AC000CF93DF93CDB7DEB721970FB6F894DEBF93
:100AD0000FBECDBF8091260290912702009128027F
:100AE000109129028F5F9F4F0F4F1F4F10932902C4
:100AF000009328027C01909327028093260283B101
:100B0000807161E0803009F0612D8CE691E00E94F7
:100B1000D7088030E9F0823009F46FC0ACE2B2E06F
:100B20000FB6F8948C910FBE91E09983823009F44E
:100B3000912D22E0813009F0292F0FB6F8942C93E3
:100B40000FBEAAE2B2E00FB6F8941C920FBE01C02D
:100B500089830E947F10A0912402B0912502A031C8
:100B6000B10551F40E94821081E0ABE2B2E00FB611
:100B7000F8948C930FBE41C0209122023091230241
:100B80002031310508F071C09BE03902302D11246D
:100B9000299F912D1124930F492F5527542F442716
:100BA000202D3327242B352BF901E758FE4F1183D5
:100BB0000083A90149585E4FFA01F182E082F901F0
:100BC000EE58FE4F9981908320593E4F40E051E00E
:100BD000F901518340831196B0932502A09324021A
:100BE000E0912202F09123023196EF70F070F093C1
:100BF0002302E09322020E948210ACE2B2E00FB620
:100C0000F8948C910FBE813021F0823021F42D9820
:100C10001FC02D9A1DC0AAE2B2E00FB6F8948C91C5
:100C20000FBE382F3451912D20E23A3030E208F0D7
:100C3000392F8A3008F0232F35B13F7D322B35B95B
:100C4000833611F08395982F0FB6F8949C930FBEBE
:100C500021960FB6F894DEBF0FBECDBFDF91CF91C6
:100C60001F910F91FF90EF90089560E170E040E5D3
:100C700054E2C9010E94770DCF92DF92EF92FF926A
:100C80000F931F938A017B010115110599F080E0F4
:100C900090E06C018E0D9F1D0E947C109091C00011
:100CA00090729030D9F38093C600C60101968017E8
:100CB000910779F71F910F91FF90EF90DF90CF9000
:100CC00008950F931F93FB0100E010E081E04115B0
:100CD0005105E007F10709F4812D8170803009F496
:100CE0003FC0F295F07FE295FE27E07FFE27529508
:100CF000E527507FE52742955427407F542781E020
:100D000041155105E007F10709F0812D8170803010
:100D100009F036C060E074E284EF90E09A01AF0120
:100D20000E94BC0D215030404040504090E181E095
:100D3000211539074007510708F0812D8170803057
:100D4000B9F01092C0003093C5002093C40088E130
:100D50008093C10086E08093C2001F910F91089597
:100D60008EE794E26AE170E048E954E20E949B0D4C
:100D700080EB94E263E270E043ED54E20E949B0D4D
:100D800084EA94E20E94190920E030E081E04115F4
:100D900051056207730709F4812D8170803059F085
:100DA00081E0972F99230AF4812D8170803061F0C2
:100DB0000E94F60608958091C00080728030D9F3B9
:100DC00080E38093C60008958091C00080728030D7
:100DD000D9F38DE28093C600F901E41BF50B260BD5
:100DE000370BAF01B9010E94F60608954F925F924A
:100DF0006F927F928F929F92AF92BF92CF92DF922B
:100E0000EF92FF920F931F93CF93DF93CDB7DEB78F
:100E10002A970FB6F894DEBF0FBECDBF7B0120E04E
:100E200030E081E0411551052901E206F30609F49D
:100E3000812D8170803009F42DC0320178866F8257
:100E40007E826D827C826B827A8269824A010AE0AC
:100E500010E0B401C7019801A3010E94BC0D690113
:100E60005A01B601C50198018401A3010E942B100B
:100E7000C801861B970B80638A87198681E00A3038
:100E80001105E604F70408F0812D8170803059F0D7
:100E900089E04EC18091C00080728030D9F380E338
:100EA0008093C60058C12AE030E0B601C501620156
:100EB000A6010E94BC0D6063698781E004361105BC
:100EC000EC04FD0408F0812D8170803011F088E081
:100ED0002FC124E630E0B801C7016201A6010E94DB
:100EE000BC0DEAE0F0E0B901CA019F01A6010E9431
:100EF000BC0D6063688793E081E0083E1907EC044D
:100F0000FD0408F0812D8170803011F087E010C160
:100F100028EE33E0B801C7016201A6010E94BC0DB2
:100F2000EAE0F0E0B901CA019F01A6010E94BC0DF0
:100F300060636F8397E281E000311907EC04FD04E0
:100F400008F0812D8170803011F086E0F1C020E141
:100F500037E200E010E0B401C701A8010E94BC0D17
:100F6000EAE0F0E0B901CA019F01A80184010E94F2
:100F7000BC0D60636E8396E821E030E081E0003ACA
:100F80001907E206F30608F0812D8170803011F018
:100F900085E0CEC020EA36E841E050E0B801C70164
:100FA0000E94BC0D89012DEC3CECE0E0F0E0B801C2
:100FB000CA01AF010E942B1096958795969587954B
:100FC000969587952AE09202902D1124829F812D7B
:100FD0001124890F9927982F8827202D3327282B14
:100FE000392B021B130B00630D83B40192E42FE035
:100FF00030E081E060347907E206F30608F0812DE5
:101000008170803011F084E093C020E432E44FE03E
:1010100050E0C7010E94BC0D89012AE939E1E0E0F6
:10102000F0E0B801CA01AF010E942B102AE0920241
:10103000902D1124829F812D1124890F9927982F9B
:101040008827202D3327282B392B021B130B0063F5
:101050000C83B40196E928E930E081E06038790733
:10106000E206F30608F0812D8170803011F083E0F4
:101070005FC020E836E948E950E0C7010E94BC0D96
:1010800089012AE939E1E0E0F0E0B801CA01AF01E5
:101090000E942B102AE09202902D1124829F812D14
:1010A0001124890F9927982F8827202D3327282B43
:1010B000392B021B130B00630B8391EE25EF35E0F8
:1010C00081E081149906E206F30608F0812D817013
:1010D000803011F082E02CC020E031EE45EF55E089
:1010E000B401C7010E94BC0D8AE1289F812D112403
:1010F0009AE089021124201920632A839AEC2AE9B4
:101100003BE381E081149906E206F30608F0812DA5
:101110008170803011F081E00BC020E03AEC4AE9A8
:101120005BE3B401C7010E94BC0D2063298380E00A
:1011300090E09E012F5F3F4FD901A80FB91F4C913E
:101140005091C00050725030D9F34093C6000196C0
:101150008A30910589F72A960FB6F894DEBF0FBE44
:10116000CDBFDF91CF911F910F91FF90EF90DF9056
:10117000CF90BF90AF909F908F907F906F905F9037
:101180004F900895DC010FB6F8946C930FBEFD01EB
:1011900031960FB6F89460830FBE02969C01FD0154
:1011A0008381D9010FB6F8948C930FBE0895FC018A
:1011B0000FB6F89480810FBE91E0803009F4912D34
:1011C00096279170DF0112960FB6F8948C910FBE9E
:1011D000903061F00FB6F89460830FBE81E00FB6D7
:1011E000F8948C930FBE9F01938109C09F01938156
:1011F000891728F483950FB6F8948C930FBE89173E
:1012000090F0D90111960FB6F8949C910FBE81E031
:10121000903009F4812D681731F00FB6F8946C9373
:101220000FBE862F089562E0862F08950E947A10DF
:101230000895AC018FED94E263E370E00E94A00D8D
:101240004F925F926F927F928F929F92AF92BF92D6
:10125000CF92DF92EF92FF920F931F93DB01AC01CD
:101260009D01369527952115310509F41EC1CD0143
:10127000817090708115910519F480E090E00BC0A9
:10128000AE7FBF77CA01A80FB91F9C9181E0903C47
:101290000CF4812D99277A0140EC50E05A0140E08E
:1012A00050E04A0118C08401B3019201261B370B9C
:1012B000D601EA0EFB1EFB01E370F070A801452F7A
:1012C0005527480F591F1070040F151FE115F10520
:1012D000C80109F0A3C02115310509F4D7C0670181
:1012E000203C3105290108F095013901220F331FF7
:1012F0007901287F31702115310509F4D4CFD60149
:101300002A0F3B1F8401FD0140815181BA01729572
:1013100062956F7067277F706727769567957695DA
:10132000679540955095529542954F7045275F704F
:101330004527569547955695479556954795462B7B
:10134000572B41705170040F151F62817381AB01DF
:10135000529542954F7045275F70452756954795A2
:101360005695479560957095729562956F70672751
:101370007F706727769567957695679576956795DB
:10138000642B752B61707170600F711F44815581E2
:101390008A01129502950F7001271F70012716957B
:1013A00007951695079540955095529542954F7023
:1013B00045275F704527569547955695479556950D
:1013C0004795402B512B41705170460F571F068196
:1013D0001781B801729562956F7067277F706727D4
:1013E0007695679576956795009510951295029577
:1013F0000F7001271F700127169507951695079501
:1014000016950795062B172B01701170040F151FE9
:101410001896A217B30709F076CF46CF6C7F70708D
:10142000660F771FA60FB71FEE0FFF1F80E090E03B
:101430002D913D91A901529542954F7045275F70BE
:101440004527569547955695479520953095329561
:1014500022952F7023273F702327369527953695A1
:10146000279536952795242B352B21703170820FC7
:10147000931F3297E115F10509F0DACF9C01232F74
:101480003327200F311F9070820F931F1F910F91F0
:10149000FF90EF90DF90CF90BF90AF909F908F9094
:1014A0007F906F905F904F900895A115B10591F0D6
:1014B000FA01AE0FBF1F80E090E006C03327820F15
:1014C000931FEA17FB0711F3319121E0303CB4F789
:1014D000212DF4CF80E090E0D9CF2F923F924F9210
:1014E0005F926F927F928F929F92AF92BF92CF92B4
:1014F000DF92EF92FF920F931F93CF93DF93CDB7BD
:10150000DEB762970FB6F894DEBF0FBECDBF67019E
:101510001801D9017A015C01603040E050E0F5012A
:1015200009F429C066817781FB01E072F07081E0E7
:1015300011141104E407F50709F0812D81700FEFF4
:101540001FEF8030980109F49A01803011F40BE20A
:1015500010E03A8B298BE295EF70F295EF27FF7040
:10156000EF27F695E795EC0DFD1DCF01F501848081
:101570009580FC010CC06681778184809580F6019E
:10158000319680E090E09A8B898B0DE210E09B0110
:101590002078307081E0111411042407350709F018
:1015A000812D81708030DE86CD8619F07A01CF01E1
:1015B0002BC0A8303F01B105B8F4A115B105F1F079
:1015C000F7012D01EA0FFB1F80E090E0D70106C074
:1015D0003327820F931FAE17BF0799F03D9121E08B
:1015E000303CB4F7212DF4CFC7016B012D01BD01B3
:1015F0000E94200940E050E0B60103C02D0180E0C8
:1016000090E0860D971DD201F50120853185388B3C
:101610002F8782179307FC0108F09AC09B01207066
:10162000317081E0111411042407350709F0812D70
:101630008170803009F4A7C0CB018070907621E0E2
:10164000111411048407950709F0212D21706F846E
:1016500078886E1A7F0A6F717070203038862F82FA
:10166000BA87A987FA83E98381F440E050E421E056
:10167000111411048407950709F0212D21702030E1
:10168000A30119F0A301569547957E826D82F5015D
:1016900062807380A080B18041155C874B875105C3
:1016A0006B0199F0F301408451848B859C851C016A
:1016B000C501A401F2010995803009F0B9C0C1014A
:1016C000019781159105B60191F7C501B301980104
:1016D00049895A898701E984FA840E94520C803032
:1016E00009F0A6C0F30126813781C5016F81788595
:1016F0004D855E85F9010995803009F099C02B85EB
:101700003C854D805E8042165306812D09F491C0C0
:10171000421A530AE980FA80E20EF31E8F859889F7
:10172000E81AF90AF30100851185E0E0F0E03F01D5
:10173000C501A401B601F8010995803009F0A8C0DF
:10174000F3013197C7018E179F07812D81F771C073
:10175000F50182809380A080B180C501B401980119
:1017600049895A8987017D010E94520C803009F015
:101770005FC0F40126813781C501B1014D855E85C9
:10178000F901099556C06F01F501848195819C8707
:101790008B8780E390E095838483868197819E8305
:1017A0008D83807E9F7990629783868382859385DF
:1017B0009C838B834084518480809180628073807D
:1017C000C401B301980149895A8987017D010E94AA
:1017D000520C803009F02CC05A8A498A8F8598892A
:1017E0008C159D05D1F0EF84F888EC18FD08F30105
:1017F0000085118580E390E06C0180E090E02C0191
:10180000C401A601B201F8010995803089F4C7012D
:10181000019781157C01910599F7F30126813781A4
:10182000C401B1014D855E85F90109958030E9F06B
:1018300081E099278170907062960FB6F894DEBFB0
:101840000FBECDBFDF91CF911F910F91FF90EF9011
:10185000DF90CF90BF90AF909F908F907F906F90D0
:101860005F904F903F902F900895F5018B859C8558
:10187000958384838D819E819783868389899A89C4
:10188000918780878B819C8193878287812DD1CF9F
:1018900071946194710881E06414750408F4C9CFEF
:1018A000812DC7CF8F929F92AF92BF92CF92DF923E
:1018B000DA015B016C019FEF4FEF5FEF81E02F3F9B
:1018C0003907A407B50709F0812D8170803061F4D4
:1018D000F50180849184C601A901BD01F401099537
:1018E000803011F081E00DC00115110549F0F501BE
:1018F00026813781C601B801A701F901099501C008
:10190000812D9927DF90CF90BF90AF909F908F90BF
:1019100008958F929F92AF92BF92CF92DF92EF92F3
:10192000FF920F931F93CF93DF93CDB7DEB7259729
:101930000FB6F894DEBF0FBECDBF7B01FC01208146
:10194000318183E0283E6901380708F462C0B6019E
:10195000729562956F7067277F70672727E433E081
:1019600040E050E0CA015A010E942B108C011695EC
:101970000795169507951695079587E20802802D1D
:10198000112490E1099F912D1124980F812F8295A8
:10199000807F890F9927982F8827202D3327282B80
:1019A000392B4601821A930AB4017695679576958C
:1019B00067952BE734E1C501A5010E942B10A80112
:1019C0009C012E7F377028503B4DF90120813181D9
:1019D0003B832A839695879524E69202902D1124C5
:1019E000829F812D1124890F9927982F8827202DD8
:1019F0003327282B392BF401E21BF30BEE0FFF1FCB
:101A0000E850FB4D808191819D838C8381E090E043
:101A100036C0C6018A30910508F42EC08601B8018F
:101A200076956795769567952BE734E140E050E031
:101A3000CA010E942B10AC015695479584E65802C6
:101A4000902D1124489F812D1124890F9927982FBB
:101A50008827202D3327282B392BC801821B930B75
:101A6000880F991F88509B4DFC01808191819D8337
:101A70008C8383E090E003C085E090E0A60165E000
:101A800070E0C114D10419F04115510561F00197BE
:101A9000FA01DE011196A80FB91FEE0FFF1FE750E4
:101AA000FB4D20812C938E010F5F1F4F080F191FD4
:101AB000681B790B41E050E020E030E0C7017B017A
:101AC00061E00E946D0A992725960FB6F894DEBF53
:101AD0000FBECDBFDF91CF911F910F91FF90EF907F
:101AE000DF90CF90BF90AF909F908F900895CF934D
:101AF000DF93CDB7DEB72C970FB6F894DEBF0FBEDD
:101B0000CDBF7C836B839A83898389E89CE09C8723
:101B10008B879E012F5F3F4F3A87298798878F8356
:101B2000CE0103969E838D838BE993E2BE016B5FAA
:101B30007F4F0E94A00D660F771F61600E94A00D6D
:101B4000CF93DF93CDB7DEB72A970FB6F894DEBFF9
:101B50000FBECDBF7C836B839A8389835A87498765
:101B6000CE01019698878F8381E090E09E838D83DC
:101B7000CE0105960E9436002F923F924F925F92BF
:101B80006F927F928F929F92AF92BF92CF92DF928D
:101B9000EF92FF920F931F93CF93DF93CDB7DEB7F2
:101BA00026970FB6F894DEBF0FBECDBF4A0179016C
:101BB0001C0181E06E157F052804390408F0812D91
:101BC000817020E030E0803011F0A90166C1D901B8
:101BD0008114910409F041C09701369527952E296B
:101BE0003F29A9015695479556954795422B532B6A
:101BF000FA01F295E295EF70EF27FF70EF27E42BE3
:101C0000F52B9F01232F33272E2B3F2B209530952B
:101C1000A9015695479545755575241B350BA901A6
:101C200043735373369527953695279523733373EE
:101C3000240F351FA901529542954F7045275F70BB
:101C40004527420F531F4F705F70CA01892F992794
:101C5000840F951F907040963FC09401369527954C
:101C600028293929A9015695479556954795422B1C
:101C7000532BFA01F295E295EF70EF27FF70EF27F3
:101C8000E42BF52B9F01232F33272E2B3F2B209561
:101C90003095A9015695479545755575241B350B0B
:101CA000A90143735373369527953695279523736A
:101CB0003373240F351FA901529542954F70452764
:101CC0005F704527420F531F4F705F70CA01892F05
:101CD0009927840F951F907021E0611571052A06E0
:101CE0003B0609F0212D2170203009F045C0211458
:101CF000310409F044C09B0136952795262B372BDC
:101D0000A9015695479556954795422B532BFA01B5
:101D1000F295E295EF70EF27FF70EF27E42BF52B9C
:101D20009F01232F33272E2B3F2B20953095A90180
:101D30005695479545755575241B350BA901437379
:101D40005373369527953695279523733373240F50
:101D5000351FA901529542954F7045275F70452761
:101D6000420F531F4F705F70FA01EF2FFF27E40FF0
:101D7000F51FF070709642C0E0E2F0E03FC09101C4
:101D80003695279522293329A901569547955695C9
:101D90004795422B532BFA01F295E295EF70EF270E
:101DA000FF70EF27E42BF52B9F01232F33272E2BDA
:101DB0003F2B20953095A90156954795457555754A
:101DC000241B350BA901437353733695279536951C
:101DD000279523733373240F351FA901529542951C
:101DE0004F7045275F704527420F531F4F705F703C
:101DF000FA01EF2FFF27E40FF51FF0708E1B9F0BEA
:101E0000282F2F712030A701F40149F0A701F40118
:101E1000440F551FEE1FFF1F2A952030C9F721E000
:101E2000641775072E063F0608F0212D3327217011
:101E30003070821B930BFC01EF71F070E03059F0B1
:101E40002E2F67015401CC0CDD1CAA1CBB1C2A954B
:101E50002030C9F702C0670154016C197D092A08B6
:101E60003B0800E010E0A1E0B0E0E03051F040E0DD
:101E700050E0AA0FBB1F441F551FEA95E030C9F779
:101E800001C0A801E1E06E157F052804390408F0BF
:101E9000E12DE170E03019F09D01C101B8C0E1E031
:101EA000FB2DFF230AF4E12DE170E03039F09E8331
:101EB0008D83FD017A019D01C10155C09A828982FD
:101EC000B694A794D794C79401979E838D83E82FE7
:101ED000EF7180E090E021E030E0E03039F0220F57
:101EE000331F881F991FEA95E030C9F73C832B8385
:101EF000FB01EC19FD093F01F101EA09FB0921E0B1
:101F00002F01EF2FEE23E1E00AF09AC0E12DE170FE
:101F1000E03009F499C04C01E030F22F09F42101BE
:101F2000B3016E157F05C20129813A8182079307AB
:101F300008F0F12DE0309401790119F420E030E04F
:101F40007901F170E0302B813C8111F420E030E028
:101F5000E42AF52A2A2B3B2BA701F0307401EB81F0
:101F6000FC8109F054C02A01D901E150F0404F0131
:101F70009701204030403901ED81FE81E115F105E6
:101F800009F42EC041E050E04C195D090A091B0913
:101F900007C03197E115F1058701A60109F420C0BA
:101FA000660F771F881F991F9B016A01240F351F39
:101FB000AC017801401F511F11E0052F00233AF0BA
:101FC000112D1170103031F0103019F707C0117059
:101FD0001030D1F7CA01103009F0DBCFB901D9CFE9
:101FE000862297229D0128293929682279224628AC
:101FF0005728F2014D815E814F71403039F096953E
:102000008795779567954A954030C9F7AF01269631
:102010000FB6F894DEBF0FBECDBFDF91CF911F91F9
:102020000F91FF90EF90DF90CF90BF90AF909F9077
:102030008F907F906F905F904F903F902F9008957A
:10204000E170E03009F067CF3B014C01E030F22F46
:1020500009F465CF65CFDB018F939F930E943B10FE
:10206000BF91AF91A29F800D911DA39F900DB29F34
:10207000900D112408950E944610A59F900DB49FC5
:10208000900DA49F800D911D11240895A29FB00171
:10209000B39FC001A39F700D811D1124911DB29F9C
:1020A000700D811D1124911D0895FFCF0F920FB661
:1020B0000F921F9211242F933F934F935F936F932F
:1020C0007F938F939F93AF93BF93EF93FF930E9460
:1020D0005C05FF91EF91BF91AF919F918F917F919F
:1020E0006F915F914F913F912F911F900F900FBE75
:1020F0000F90189578940895FC01849108958FB7F6
:10210000F89408958FBF089520494E5055542020CB
:10211000494E4143544956450D0A204143544956BE
:10212000450D0A204D4541535552454D454E5420CD
:10213000200D0A7372632F6576656E745F71756525
:1021400075652E7273007372632F73657269616CAB
:102150002E7273007372632F6465626F756E6365B0
:102160002E7273007372632F6770696F2E72730023
:102170002F55736572732F6272616E646F6E657630
:10218000656E2F2E7275737475702F746F6F6C631C
:102190006861696E732F6E696768746C792D61610F
:1021A00072636836342D6170706C652D646172776E
:1021B000696E2F6C69622F727573746C69622F730C
:1021C00072632F727573742F6C6962726172792FEA
:1021D000636F72652F7372632F7374722F6D6F64E8
:1021E0002E727300117374617274206279746520A9
:1021F000696E64657820C026206973206E6F742034
:1022000061206368617220626F756E646172793BF0
:1022100020697420697320696E7369646520C00841
:102220002028627974657320C00B206F6620737458
:1022300072696E6729000F656E642062797465208B
:10224000696E64657820C026206973206E6F7420E3
:1022500061206368617220626F756E646172793BA0
:1022600020697420697320696E7369646520C008F1
:102270002028627974657320C00B206F6620737408
:1022800072696E6729000F656E642062797465203B
:10229000696E64657820C027206973206F7574208B
:1022A0006F6620626F756E647320666F7220737440
:1022B00072696E67206F66206C656E67746820C0F7
:1022C0000015627974652072616E676520737461B0
:1022D00072747320617420C00D2062757420656E65
:1022E000647320617420C000117374617274206281
:1022F00079746520696E64657820C0272069732031
:102300006F7574206F6620626F756E647320666FE0
:102310007220737472696E67206F66206C656E67D9
:10232000746820C0002F55736572732F6272616EDE
:10233000646F6E6576656E2F2E7275737475702F6F
:10234000746F6F6C636861696E732F6E6967687410
:102350006C792D616172636836342D6170706C65C3
:102360002D64617277696E2F6C69622F7275737458
:102370006C69622F7372632F727573742F6C69624C
:10238000726172792F636F72652F7372632F706140
:102390006E69636B696E672E72730020696E646587
:1023A00078206F7574206F6620626F756E64733A63
:1023B00020746865206C656E20697320C0122062ED
:1023C00075742074686520696E646578206973206F
:1023D000C00010617373657274696F6E20606C6504
:1023E000667420C01720726967687460206661692E
:1023F0006C65640A20206C6566743A20C0090A2066
:1024000072696768743A20C00010617373657274F2
:10241000696F6E20606C65667420C01020726967F9
:10242000687460206661696C65643A20C0090A209E
:10243000206C6566743A20C0090A20726967687466
:102440003A20C0003321120058000000150000009F
:10245000332112004C000000090000003020424FE0
:102460004F540D0A52583A204552524F522051555E
:102470004555455F4F564552464C4F570D0A6173BF
:1024800073657274696F6E206661696C65643A2069
:1024900062617564203E203046210D002600000058
:1024A0000900000046210D00280000001700000070
:1024B000617373657274696F6E206661696C6564BF
:1024C0003A2064697669736F72203C3D2030783021
:1024D00046464646210D0029000000090000006123
:1024E0007474656D707420746F20646976696465B6
:1024F000206279207A65726F30303031303230337B
:1025000030343035303630373038303931303131A1
:102510003132313331343135313631373138313987
:10252000323032313232323332343235323632377F
:102530003238323933303331333233333334333565
:10254000333633373338333934303431343234334B
:102550003434343534363437343834393530353131
:102560003532353335343535353635373538353917
:10257000363036313632363336343635363636370F
:1025800036383639373037313732373337343735F5
:1025900037363737373837393830383138323833DB
:1025A00038343835383638373838383939303931C1
:1025B00039323933393439353936393739383939A7
:1025C000000000000000000000000000000000000B
:1025D00000000000000000000000000000000000FB
:1025E00000000000000000000000000000000000EB
:1025F00000000000000000000000000000000000DB
:1026000000000000000000000000000000000000CA
:1026100000000000000000000000000000000000BA
:10262000000000000200020002000200000000039F
:102630000200000000000000000000020000000096
:102640000000000000000200000000000000000088
:102650000002000000000000000000000200000076
:102660000000000000000002000000000000000068
:102670000000020000000000000000000002000056
:102680000000000000000000020000000000000048
:102690000000000200000000000000000000020036
:1026A0000000000000000000000200000000000028
:1026B0000000000002000000000000000000000216
:1026C0000000000000000000000002000000000008
:1026D00000000000000200000000000000000000F8
:0626E000000000000000F4
:00000001FF
